{
  "address": "0xf07483E43d292a53f759E9f9f23Be18d42552ee7",
  "abi": [
    {
      "inputs": [
        {
          "internalType": "address",
          "name": "_endpoint",
          "type": "address"
        }
      ],
      "stateMutability": "nonpayable",
      "type": "constructor"
    },
    {
      "anonymous": false,
      "inputs": [
        {
          "indexed": true,
          "internalType": "address",
          "name": "owner",
          "type": "address"
        },
        {
          "indexed": true,
          "internalType": "address",
          "name": "approved",
          "type": "address"
        },
        {
          "indexed": true,
          "internalType": "uint256",
          "name": "tokenId",
          "type": "uint256"
        }
      ],
      "name": "Approval",
      "type": "event"
    },
    {
      "anonymous": false,
      "inputs": [
        {
          "indexed": true,
          "internalType": "address",
          "name": "owner",
          "type": "address"
        },
        {
          "indexed": true,
          "internalType": "address",
          "name": "operator",
          "type": "address"
        },
        {
          "indexed": false,
          "internalType": "bool",
          "name": "approved",
          "type": "bool"
        }
      ],
      "name": "ApprovalForAll",
      "type": "event"
    },
    {
      "anonymous": false,
      "inputs": [
        {
          "indexed": false,
          "internalType": "uint16",
          "name": "_srcChainId",
          "type": "uint16"
        },
        {
          "indexed": false,
          "internalType": "bytes",
          "name": "_srcAddress",
          "type": "bytes"
        },
        {
          "indexed": false,
          "internalType": "uint64",
          "name": "_nonce",
          "type": "uint64"
        },
        {
          "indexed": false,
          "internalType": "bytes",
          "name": "_payload",
          "type": "bytes"
        }
      ],
      "name": "MessageFailed",
      "type": "event"
    },
    {
      "anonymous": false,
      "inputs": [
        {
          "indexed": true,
          "internalType": "address",
          "name": "previousOwner",
          "type": "address"
        },
        {
          "indexed": true,
          "internalType": "address",
          "name": "newOwner",
          "type": "address"
        }
      ],
      "name": "OwnershipTransferred",
      "type": "event"
    },
    {
      "anonymous": false,
      "inputs": [
        {
          "indexed": false,
          "internalType": "uint16",
          "name": "_srcChainId",
          "type": "uint16"
        },
        {
          "indexed": false,
          "internalType": "bytes",
          "name": "_srcAddress",
          "type": "bytes"
        }
      ],
      "name": "SetTrustedRemote",
      "type": "event"
    },
    {
      "anonymous": false,
      "inputs": [
        {
          "indexed": true,
          "internalType": "address",
          "name": "from",
          "type": "address"
        },
        {
          "indexed": true,
          "internalType": "address",
          "name": "to",
          "type": "address"
        },
        {
          "indexed": true,
          "internalType": "uint256",
          "name": "tokenId",
          "type": "uint256"
        }
      ],
      "name": "Transfer",
      "type": "event"
    },
    {
      "inputs": [
        {
          "internalType": "address",
          "name": "to",
          "type": "address"
        },
        {
          "internalType": "uint256",
          "name": "tokenId",
          "type": "uint256"
        }
      ],
      "name": "approve",
      "outputs": [],
      "stateMutability": "nonpayable",
      "type": "function"
    },
    {
      "inputs": [
        {
          "internalType": "address",
          "name": "owner",
          "type": "address"
        }
      ],
      "name": "balanceOf",
      "outputs": [
        {
          "internalType": "uint256",
          "name": "",
          "type": "uint256"
        }
      ],
      "stateMutability": "view",
      "type": "function"
    },
    {
      "inputs": [
        {
          "internalType": "uint16",
          "name": "",
          "type": "uint16"
        },
        {
          "internalType": "bytes",
          "name": "",
          "type": "bytes"
        },
        {
          "internalType": "uint64",
          "name": "",
          "type": "uint64"
        }
      ],
      "name": "failedMessages",
      "outputs": [
        {
          "internalType": "bytes32",
          "name": "",
          "type": "bytes32"
        }
      ],
      "stateMutability": "view",
      "type": "function"
    },
    {
      "inputs": [
        {
          "internalType": "uint16",
          "name": "_srcChainId",
          "type": "uint16"
        },
        {
          "internalType": "bytes",
          "name": "_srcAddress",
          "type": "bytes"
        }
      ],
      "name": "forceResumeReceive",
      "outputs": [],
      "stateMutability": "nonpayable",
      "type": "function"
    },
    {
      "inputs": [
        {
          "internalType": "uint256",
          "name": "tokenId",
          "type": "uint256"
        }
      ],
      "name": "getApproved",
      "outputs": [
        {
          "internalType": "address",
          "name": "",
          "type": "address"
        }
      ],
      "stateMutability": "view",
      "type": "function"
    },
    {
      "inputs": [
        {
          "internalType": "uint16",
          "name": "_version",
          "type": "uint16"
        },
        {
          "internalType": "uint16",
          "name": "_chainId",
          "type": "uint16"
        },
        {
          "internalType": "address",
          "name": "",
          "type": "address"
        },
        {
          "internalType": "uint256",
          "name": "_configType",
          "type": "uint256"
        }
      ],
      "name": "getConfig",
      "outputs": [
        {
          "internalType": "bytes",
          "name": "",
          "type": "bytes"
        }
      ],
      "stateMutability": "view",
      "type": "function"
    },
    {
      "inputs": [
        {
          "internalType": "address",
          "name": "owner",
          "type": "address"
        },
        {
          "internalType": "address",
          "name": "operator",
          "type": "address"
        }
      ],
      "name": "isApprovedForAll",
      "outputs": [
        {
          "internalType": "bool",
          "name": "",
          "type": "bool"
        }
      ],
      "stateMutability": "view",
      "type": "function"
    },
    {
      "inputs": [
        {
          "internalType": "uint16",
          "name": "_srcChainId",
          "type": "uint16"
        },
        {
          "internalType": "bytes",
          "name": "_srcAddress",
          "type": "bytes"
        }
      ],
      "name": "isTrustedRemote",
      "outputs": [
        {
          "internalType": "bool",
          "name": "",
          "type": "bool"
        }
      ],
      "stateMutability": "view",
      "type": "function"
    },
    {
      "inputs": [],
      "name": "lzEndpoint",
      "outputs": [
        {
          "internalType": "contract ILayerZeroEndpoint",
          "name": "",
          "type": "address"
        }
      ],
      "stateMutability": "view",
      "type": "function"
    },
    {
      "inputs": [
        {
          "internalType": "uint16",
          "name": "_srcChainId",
          "type": "uint16"
        },
        {
          "internalType": "bytes",
          "name": "_srcAddress",
          "type": "bytes"
        },
        {
          "internalType": "uint64",
          "name": "_nonce",
          "type": "uint64"
        },
        {
          "internalType": "bytes",
          "name": "_payload",
          "type": "bytes"
        }
      ],
      "name": "lzReceive",
      "outputs": [],
      "stateMutability": "nonpayable",
      "type": "function"
    },
    {
      "inputs": [],
      "name": "mint",
      "outputs": [],
      "stateMutability": "nonpayable",
      "type": "function"
    },
    {
      "inputs": [],
      "name": "name",
      "outputs": [
        {
          "internalType": "string",
          "name": "",
          "type": "string"
        }
      ],
      "stateMutability": "view",
      "type": "function"
    },
    {
      "inputs": [
        {
          "internalType": "uint16",
          "name": "_srcChainId",
          "type": "uint16"
        },
        {
          "internalType": "bytes",
          "name": "_srcAddress",
          "type": "bytes"
        },
        {
          "internalType": "uint64",
          "name": "_nonce",
          "type": "uint64"
        },
        {
          "internalType": "bytes",
          "name": "_payload",
          "type": "bytes"
        }
      ],
      "name": "nonblockingLzReceive",
      "outputs": [],
      "stateMutability": "nonpayable",
      "type": "function"
    },
    {
      "inputs": [],
      "name": "owner",
      "outputs": [
        {
          "internalType": "address",
          "name": "",
          "type": "address"
        }
      ],
      "stateMutability": "view",
      "type": "function"
    },
    {
      "inputs": [
        {
          "internalType": "uint256",
          "name": "tokenId",
          "type": "uint256"
        }
      ],
      "name": "ownerOf",
      "outputs": [
        {
          "internalType": "address",
          "name": "",
          "type": "address"
        }
      ],
      "stateMutability": "view",
      "type": "function"
    },
    {
      "inputs": [],
      "name": "renounceOwnership",
      "outputs": [],
      "stateMutability": "nonpayable",
      "type": "function"
    },
    {
      "inputs": [
        {
          "internalType": "uint16",
          "name": "_srcChainId",
          "type": "uint16"
        },
        {
          "internalType": "bytes",
          "name": "_srcAddress",
          "type": "bytes"
        },
        {
          "internalType": "uint64",
          "name": "_nonce",
          "type": "uint64"
        },
        {
          "internalType": "bytes",
          "name": "_payload",
          "type": "bytes"
        }
      ],
      "name": "retryMessage",
      "outputs": [],
      "stateMutability": "payable",
      "type": "function"
    },
    {
      "inputs": [
        {
          "internalType": "address",
          "name": "from",
          "type": "address"
        },
        {
          "internalType": "address",
          "name": "to",
          "type": "address"
        },
        {
          "internalType": "uint256",
          "name": "tokenId",
          "type": "uint256"
        }
      ],
      "name": "safeTransferFrom",
      "outputs": [],
      "stateMutability": "nonpayable",
      "type": "function"
    },
    {
      "inputs": [
        {
          "internalType": "address",
          "name": "from",
          "type": "address"
        },
        {
          "internalType": "address",
          "name": "to",
          "type": "address"
        },
        {
          "internalType": "uint256",
          "name": "tokenId",
          "type": "uint256"
        },
        {
          "internalType": "bytes",
          "name": "_data",
          "type": "bytes"
        }
      ],
      "name": "safeTransferFrom",
      "outputs": [],
      "stateMutability": "nonpayable",
      "type": "function"
    },
    {
      "inputs": [
        {
          "internalType": "address",
          "name": "operator",
          "type": "address"
        },
        {
          "internalType": "bool",
          "name": "approved",
          "type": "bool"
        }
      ],
      "name": "setApprovalForAll",
      "outputs": [],
      "stateMutability": "nonpayable",
      "type": "function"
    },
    {
      "inputs": [
        {
          "internalType": "uint16",
          "name": "_version",
          "type": "uint16"
        },
        {
          "internalType": "uint16",
          "name": "_chainId",
          "type": "uint16"
        },
        {
          "internalType": "uint256",
          "name": "_configType",
          "type": "uint256"
        },
        {
          "internalType": "bytes",
          "name": "_config",
          "type": "bytes"
        }
      ],
      "name": "setConfig",
      "outputs": [],
      "stateMutability": "nonpayable",
      "type": "function"
    },
    {
      "inputs": [
        {
          "internalType": "uint16",
          "name": "_version",
          "type": "uint16"
        }
      ],
      "name": "setReceiveVersion",
      "outputs": [],
      "stateMutability": "nonpayable",
      "type": "function"
    },
    {
      "inputs": [
        {
          "internalType": "uint16",
          "name": "_version",
          "type": "uint16"
        }
      ],
      "name": "setSendVersion",
      "outputs": [],
      "stateMutability": "nonpayable",
      "type": "function"
    },
    {
      "inputs": [
        {
          "internalType": "address",
          "name": "newTokenController",
          "type": "address"
        }
      ],
      "name": "setTokenController",
      "outputs": [],
      "stateMutability": "nonpayable",
      "type": "function"
    },
    {
      "inputs": [
        {
          "internalType": "uint256",
          "name": "tokenId",
          "type": "uint256"
        },
        {
          "internalType": "string",
          "name": "uri",
          "type": "string"
        }
      ],
      "name": "setTokenURI",
      "outputs": [],
      "stateMutability": "nonpayable",
      "type": "function"
    },
    {
      "inputs": [
        {
          "internalType": "uint16",
          "name": "_srcChainId",
          "type": "uint16"
        },
        {
          "internalType": "bytes",
          "name": "_srcAddress",
          "type": "bytes"
        }
      ],
      "name": "setTrustedRemote",
      "outputs": [],
      "stateMutability": "nonpayable",
      "type": "function"
    },
    {
      "inputs": [
        {
          "internalType": "bytes4",
          "name": "interfaceId",
          "type": "bytes4"
        }
      ],
      "name": "supportsInterface",
      "outputs": [
        {
          "internalType": "bool",
          "name": "",
          "type": "bool"
        }
      ],
      "stateMutability": "view",
      "type": "function"
    },
    {
      "inputs": [],
      "name": "symbol",
      "outputs": [
        {
          "internalType": "string",
          "name": "",
          "type": "string"
        }
      ],
      "stateMutability": "view",
      "type": "function"
    },
    {
      "inputs": [],
      "name": "tokenController",
      "outputs": [
        {
          "internalType": "address",
          "name": "",
          "type": "address"
        }
      ],
      "stateMutability": "view",
      "type": "function"
    },
    {
      "inputs": [
        {
          "internalType": "uint256",
          "name": "tokenId",
          "type": "uint256"
        }
      ],
      "name": "tokenURI",
      "outputs": [
        {
          "internalType": "string",
          "name": "uri",
          "type": "string"
        }
      ],
      "stateMutability": "view",
      "type": "function"
    },
    {
      "inputs": [
        {
          "internalType": "address",
          "name": "from",
          "type": "address"
        },
        {
          "internalType": "address",
          "name": "to",
          "type": "address"
        },
        {
          "internalType": "uint256",
          "name": "tokenId",
          "type": "uint256"
        }
      ],
      "name": "transferFrom",
      "outputs": [],
      "stateMutability": "nonpayable",
      "type": "function"
    },
    {
      "inputs": [
        {
          "internalType": "address",
          "name": "newOwner",
          "type": "address"
        }
      ],
      "name": "transferOwnership",
      "outputs": [],
      "stateMutability": "nonpayable",
      "type": "function"
    },
    {
      "inputs": [
        {
          "internalType": "uint16",
          "name": "",
          "type": "uint16"
        }
      ],
      "name": "trustedRemoteLookup",
      "outputs": [
        {
          "internalType": "bytes",
          "name": "",
          "type": "bytes"
        }
      ],
      "stateMutability": "view",
      "type": "function"
    },
    {
      "stateMutability": "payable",
      "type": "receive"
    }
  ],
  "transactionHash": "0xce2688f39429e2a572728bd87953bb53250b50ad7bd1b83f46d58fa0ce67bf25",
  "args": [
    "0x79a63d6d8BBD5c6dfc774dA79bCcD948EAcb53FA"
  ],
  "numDeployments": 1,
  "solcInputHash": "8cdb92ae9a83441070ed883c4e48a896",
  "bytecode": "0x60a06040523480156200001157600080fd5b50604051620051453803806200514583398181016040528101906200003791906200031e565b80806040518060400160405280600b81526020017f436861696e446f75626c650000000000000000000000000000000000000000008152506040518060400160405280600481526020017f434e4442000000000000000000000000000000000000000000000000000000008152508160009080519060200190620000bd92919062000204565b508060019080519060200190620000d692919062000204565b505050620000f9620000ed6200013660201b60201c565b6200013e60201b60201c565b8073ffffffffffffffffffffffffffffffffffffffff1660808173ffffffffffffffffffffffffffffffffffffffff1681525050505050620003b5565b600033905090565b6000600760009054906101000a900473ffffffffffffffffffffffffffffffffffffffff16905081600760006101000a81548173ffffffffffffffffffffffffffffffffffffffff021916908373ffffffffffffffffffffffffffffffffffffffff1602179055508173ffffffffffffffffffffffffffffffffffffffff168173ffffffffffffffffffffffffffffffffffffffff167f8be0079c531659141344cd1fd0a4f28419497f9722a3daafe3b4186f6b6457e060405160405180910390a35050565b82805462000212906200037f565b90600052602060002090601f01602090048101928262000236576000855562000282565b82601f106200025157805160ff191683800117855562000282565b8280016001018555821562000282579182015b828111156200028157825182559160200191906001019062000264565b5b50905062000291919062000295565b5090565b5b80821115620002b057600081600090555060010162000296565b5090565b600080fd5b600073ffffffffffffffffffffffffffffffffffffffff82169050919050565b6000620002e682620002b9565b9050919050565b620002f881620002d9565b81146200030457600080fd5b50565b6000815190506200031881620002ed565b92915050565b600060208284031215620003375762000336620002b4565b5b6000620003478482850162000307565b91505092915050565b7f4e487b7100000000000000000000000000000000000000000000000000000000600052602260045260246000fd5b600060028204905060018216806200039857607f821691505b60208210811415620003af57620003ae62000350565b5b50919050565b608051614d4a620003fb600039600081816107e901528181610b8601528181610e2d015281816110a30152818161156a0152818161169d0152611bf90152614d4a6000f3fe6080604052600436106101f15760003560e01c806370a082311161010d578063c87b56dd116100a0578063e985e9c51161006f578063e985e9c5146106f0578063eb8d72b71461072d578063eddd9d8214610756578063f2fde38b14610781578063f5ecbdbc146107aa576101f8565b8063c87b56dd14610645578063cbed8b9c14610682578063d1deba1f146106ab578063e102baab146106c7576101f8565b806395d89b41116100dc57806395d89b411461059d578063a22cb465146105c8578063b353aaa7146105f1578063b88d4fde1461061c576101f8565b806370a08231146104e1578063715018a61461051e5780637533d788146105355780638da5cb5b14610572576101f8565b8063162094c41161018557806342d65a8d1161015457806342d65a8d146104155780635b8c41e61461043e5780636352211e1461047b57806366ad5c8a146104b8576101f8565b8063162094c41461035d57806323b872dd146103865780633d8b38f6146103af57806342842e0e146103ec576101f8565b8063081812fc116101c1578063081812fc146102b7578063095ea7b3146102f457806310ddb1371461031d5780631249c58b14610346576101f8565b80621d3567146101fd57806301ffc9a71461022657806306fdde031461026357806307e0db171461028e576101f8565b366101f857005b600080fd5b34801561020957600080fd5b50610224600480360381019061021f9190613083565b6107e7565b005b34801561023257600080fd5b5061024d6004803603810190610248919061317a565b610994565b60405161025a91906131c2565b60405180910390f35b34801561026f57600080fd5b50610278610a76565b6040516102859190613265565b60405180910390f35b34801561029a57600080fd5b506102b560048036038101906102b09190613287565b610b08565b005b3480156102c357600080fd5b506102de60048036038101906102d991906132ea565b610c12565b6040516102eb9190613358565b60405180910390f35b34801561030057600080fd5b5061031b6004803603810190610316919061339f565b610c97565b005b34801561032957600080fd5b50610344600480360381019061033f9190613287565b610daf565b005b34801561035257600080fd5b5061035b610eb9565b005b34801561036957600080fd5b50610384600480360381019061037f9190613480565b610ec3565b005b34801561039257600080fd5b506103ad60048036038101906103a891906134dc565b610ed1565b005b3480156103bb57600080fd5b506103d660048036038101906103d1919061358f565b610f31565b6040516103e391906131c2565b60405180910390f35b3480156103f857600080fd5b50610413600480360381019061040e91906134dc565b611005565b005b34801561042157600080fd5b5061043c6004803603810190610437919061358f565b611025565b005b34801561044a57600080fd5b50610465600480360381019061046091906135ef565b611135565b6040516104729190613677565b60405180910390f35b34801561048757600080fd5b506104a2600480360381019061049d91906132ea565b61117d565b6040516104af9190613358565b60405180910390f35b3480156104c457600080fd5b506104df60048036038101906104da9190613083565b61122f565b005b3480156104ed57600080fd5b5061050860048036038101906105039190613692565b6112b6565b60405161051591906136ce565b60405180910390f35b34801561052a57600080fd5b5061053361136e565b005b34801561054157600080fd5b5061055c60048036038101906105579190613287565b6113f6565b604051610569919061373e565b60405180910390f35b34801561057e57600080fd5b50610587611496565b6040516105949190613358565b60405180910390f35b3480156105a957600080fd5b506105b26114c0565b6040516105bf9190613265565b60405180910390f35b3480156105d457600080fd5b506105ef60048036038101906105ea919061378c565b611552565b005b3480156105fd57600080fd5b50610606611568565b604051610613919061382b565b60405180910390f35b34801561062857600080fd5b50610643600480360381019061063e9190613846565b61158c565b005b34801561065157600080fd5b5061066c600480360381019061066791906132ea565b6115ee565b6040516106799190613265565b60405180910390f35b34801561068e57600080fd5b506106a960048036038101906106a491906138c9565b61161f565b005b6106c560048036038101906106c09190613083565b611735565b005b3480156106d357600080fd5b506106ee60048036038101906106e99190613692565b61189c565b005b3480156106fc57600080fd5b5061071760048036038101906107129190613951565b61195c565b60405161072491906131c2565b60405180910390f35b34801561073957600080fd5b50610754600480360381019061074f919061358f565b6119f0565b005b34801561076257600080fd5b5061076b611ad7565b6040516107789190613358565b60405180910390f35b34801561078d57600080fd5b506107a860048036038101906107a39190613692565b611afd565b005b3480156107b657600080fd5b506107d160048036038101906107cc9190613991565b611bf5565b6040516107de919061373e565b60405180910390f35b7f000000000000000000000000000000000000000000000000000000000000000073ffffffffffffffffffffffffffffffffffffffff16610826611ca6565b73ffffffffffffffffffffffffffffffffffffffff161461087c576040517f08c379a000000000000000000000000000000000000000000000000000000000815260040161087390613a44565b60405180910390fd5b6000600860008661ffff1661ffff16815260200190815260200160002080546108a490613a93565b80601f01602080910402602001604051908101604052809291908181526020018280546108d090613a93565b801561091d5780601f106108f25761010080835404028352916020019161091d565b820191906000526020600020905b81548152906001019060200180831161090057829003601f168201915b5050505050905080518451148015610942575080805190602001208480519060200120145b610981576040517f08c379a000000000000000000000000000000000000000000000000000000000815260040161097890613b37565b60405180910390fd5b61098d85858585611cae565b5050505050565b60007f80ac58cd000000000000000000000000000000000000000000000000000000007bffffffffffffffffffffffffffffffffffffffffffffffffffffffff1916827bffffffffffffffffffffffffffffffffffffffffffffffffffffffff19161480610a5f57507f5b5e139f000000000000000000000000000000000000000000000000000000007bffffffffffffffffffffffffffffffffffffffffffffffffffffffff1916827bffffffffffffffffffffffffffffffffffffffffffffffffffffffff1916145b80610a6f5750610a6e82611dcd565b5b9050919050565b606060008054610a8590613a93565b80601f0160208091040260200160405190810160405280929190818152602001828054610ab190613a93565b8015610afe5780601f10610ad357610100808354040283529160200191610afe565b820191906000526020600020905b815481529060010190602001808311610ae157829003601f168201915b5050505050905090565b610b10611ca6565b73ffffffffffffffffffffffffffffffffffffffff16610b2e611496565b73ffffffffffffffffffffffffffffffffffffffff1614610b84576040517f08c379a0000000000000000000000000000000000000000000000000000000008152600401610b7b90613ba3565b60405180910390fd5b7f000000000000000000000000000000000000000000000000000000000000000073ffffffffffffffffffffffffffffffffffffffff166307e0db17826040518263ffffffff1660e01b8152600401610bdd9190613bd2565b600060405180830381600087803b158015610bf757600080fd5b505af1158015610c0b573d6000803e3d6000fd5b5050505050565b6000610c1d82611e37565b610c5c576040517f08c379a0000000000000000000000000000000000000000000000000000000008152600401610c5390613c5f565b60405180910390fd5b6004600083815260200190815260200160002060009054906101000a900473ffffffffffffffffffffffffffffffffffffffff169050919050565b6000610ca28261117d565b90508073ffffffffffffffffffffffffffffffffffffffff168373ffffffffffffffffffffffffffffffffffffffff161415610d13576040517f08c379a0000000000000000000000000000000000000000000000000000000008152600401610d0a90613cf1565b60405180910390fd5b8073ffffffffffffffffffffffffffffffffffffffff16610d32611ca6565b73ffffffffffffffffffffffffffffffffffffffff161480610d615750610d6081610d5b611ca6565b61195c565b5b610da0576040517f08c379a0000000000000000000000000000000000000000000000000000000008152600401610d9790613d83565b60405180910390fd5b610daa8383611ea3565b505050565b610db7611ca6565b73ffffffffffffffffffffffffffffffffffffffff16610dd5611496565b73ffffffffffffffffffffffffffffffffffffffff1614610e2b576040517f08c379a0000000000000000000000000000000000000000000000000000000008152600401610e2290613ba3565b60405180910390fd5b7f000000000000000000000000000000000000000000000000000000000000000073ffffffffffffffffffffffffffffffffffffffff166310ddb137826040518263ffffffff1660e01b8152600401610e849190613bd2565b600060405180830381600087803b158015610e9e57600080fd5b505af1158015610eb2573d6000803e3d6000fd5b5050505050565b610ec1611f5c565b565b610ecd8282611f81565b5050565b610ee2610edc611ca6565b82611ff5565b610f21576040517f08c379a0000000000000000000000000000000000000000000000000000000008152600401610f1890613e15565b60405180910390fd5b610f2c8383836120d3565b505050565b600080600860008661ffff1661ffff1681526020019081526020016000208054610f5a90613a93565b80601f0160208091040260200160405190810160405280929190818152602001828054610f8690613a93565b8015610fd35780601f10610fa857610100808354040283529160200191610fd3565b820191906000526020600020905b815481529060010190602001808311610fb657829003601f168201915b505050505090508383604051610fea929190613e65565b60405180910390208180519060200120149150509392505050565b6110208383836040518060200160405280600081525061158c565b505050565b61102d611ca6565b73ffffffffffffffffffffffffffffffffffffffff1661104b611496565b73ffffffffffffffffffffffffffffffffffffffff16146110a1576040517f08c379a000000000000000000000000000000000000000000000000000000000815260040161109890613ba3565b60405180910390fd5b7f000000000000000000000000000000000000000000000000000000000000000073ffffffffffffffffffffffffffffffffffffffff166342d65a8d8484846040518463ffffffff1660e01b81526004016110fe93929190613eab565b600060405180830381600087803b15801561111857600080fd5b505af115801561112c573d6000803e3d6000fd5b50505050505050565b60096020528260005260406000208280516020810182018051848252602083016020850120818352809550505050505060205280600052604060002060009250925050505481565b6000806002600084815260200190815260200160002060009054906101000a900473ffffffffffffffffffffffffffffffffffffffff169050600073ffffffffffffffffffffffffffffffffffffffff168173ffffffffffffffffffffffffffffffffffffffff161415611226576040517f08c379a000000000000000000000000000000000000000000000000000000000815260040161121d90613f4f565b60405180910390fd5b80915050919050565b3073ffffffffffffffffffffffffffffffffffffffff1661124e611ca6565b73ffffffffffffffffffffffffffffffffffffffff16146112a4576040517f08c379a000000000000000000000000000000000000000000000000000000000815260040161129b90613fe1565b60405180910390fd5b6112b08484848461233a565b50505050565b60008073ffffffffffffffffffffffffffffffffffffffff168273ffffffffffffffffffffffffffffffffffffffff161415611327576040517f08c379a000000000000000000000000000000000000000000000000000000000815260040161131e90614073565b60405180910390fd5b600360008373ffffffffffffffffffffffffffffffffffffffff1673ffffffffffffffffffffffffffffffffffffffff168152602001908152602001600020549050919050565b611376611ca6565b73ffffffffffffffffffffffffffffffffffffffff16611394611496565b73ffffffffffffffffffffffffffffffffffffffff16146113ea576040517f08c379a00000000000000000000000000000000000000000000000000000000081526004016113e190613ba3565b60405180910390fd5b6113f460006123d3565b565b6008602052806000526040600020600091509050805461141590613a93565b80601f016020809104026020016040519081016040528092919081815260200182805461144190613a93565b801561148e5780601f106114635761010080835404028352916020019161148e565b820191906000526020600020905b81548152906001019060200180831161147157829003601f168201915b505050505081565b6000600760009054906101000a900473ffffffffffffffffffffffffffffffffffffffff16905090565b6060600180546114cf90613a93565b80601f01602080910402602001604051908101604052809291908181526020018280546114fb90613a93565b80156115485780601f1061151d57610100808354040283529160200191611548565b820191906000526020600020905b81548152906001019060200180831161152b57829003601f168201915b5050505050905090565b61156461155d611ca6565b8383612499565b5050565b7f000000000000000000000000000000000000000000000000000000000000000081565b61159d611597611ca6565b83611ff5565b6115dc576040517f08c379a00000000000000000000000000000000000000000000000000000000081526004016115d390613e15565b60405180910390fd5b6115e884848484612606565b50505050565b60606115f982612662565b604051602001611609919061411b565b6040516020818303038152906040529050919050565b611627611ca6565b73ffffffffffffffffffffffffffffffffffffffff16611645611496565b73ffffffffffffffffffffffffffffffffffffffff161461169b576040517f08c379a000000000000000000000000000000000000000000000000000000000815260040161169290613ba3565b60405180910390fd5b7f000000000000000000000000000000000000000000000000000000000000000073ffffffffffffffffffffffffffffffffffffffff1663cbed8b9c86868686866040518663ffffffff1660e01b81526004016116fc95949392919061413d565b600060405180830381600087803b15801561171657600080fd5b505af115801561172a573d6000803e3d6000fd5b505050505050505050565b6000600960008661ffff1661ffff1681526020019081526020016000208460405161176091906141bc565b908152602001604051809103902060008467ffffffffffffffff1667ffffffffffffffff1681526020019081526020016000205490506000801b8114156117dc576040517f08c379a00000000000000000000000000000000000000000000000000000000081526004016117d390614245565b60405180910390fd5b80828051906020012014611825576040517f08c379a000000000000000000000000000000000000000000000000000000000815260040161181c906142d7565b60405180910390fd5b6000801b600960008761ffff1661ffff1681526020019081526020016000208560405161185291906141bc565b908152602001604051809103902060008567ffffffffffffffff1667ffffffffffffffff168152602001908152602001600020819055506118958585858561233a565b5050505050565b6118a4611ca6565b73ffffffffffffffffffffffffffffffffffffffff166118c2611496565b73ffffffffffffffffffffffffffffffffffffffff1614611918576040517f08c379a000000000000000000000000000000000000000000000000000000000815260040161190f90613ba3565b60405180910390fd5b80600b60006101000a81548173ffffffffffffffffffffffffffffffffffffffff021916908373ffffffffffffffffffffffffffffffffffffffff16021790555050565b6000600560008473ffffffffffffffffffffffffffffffffffffffff1673ffffffffffffffffffffffffffffffffffffffff16815260200190815260200160002060008373ffffffffffffffffffffffffffffffffffffffff1673ffffffffffffffffffffffffffffffffffffffff16815260200190815260200160002060009054906101000a900460ff16905092915050565b6119f8611ca6565b73ffffffffffffffffffffffffffffffffffffffff16611a16611496565b73ffffffffffffffffffffffffffffffffffffffff1614611a6c576040517f08c379a0000000000000000000000000000000000000000000000000000000008152600401611a6390613ba3565b60405180910390fd5b8181600860008661ffff1661ffff1681526020019081526020016000209190611a96929190612d86565b507ffa41487ad5d6728f0b19276fa1eddc16558578f5109fc39d2dc33c3230470dab838383604051611aca93929190613eab565b60405180910390a1505050565b600b60009054906101000a900473ffffffffffffffffffffffffffffffffffffffff1681565b611b05611ca6565b73ffffffffffffffffffffffffffffffffffffffff16611b23611496565b73ffffffffffffffffffffffffffffffffffffffff1614611b79576040517f08c379a0000000000000000000000000000000000000000000000000000000008152600401611b7090613ba3565b60405180910390fd5b600073ffffffffffffffffffffffffffffffffffffffff168173ffffffffffffffffffffffffffffffffffffffff161415611be9576040517f08c379a0000000000000000000000000000000000000000000000000000000008152600401611be090614369565b60405180910390fd5b611bf2816123d3565b50565b60607f000000000000000000000000000000000000000000000000000000000000000073ffffffffffffffffffffffffffffffffffffffff1663f5ecbdbc868630866040518563ffffffff1660e01b8152600401611c569493929190614389565b600060405180830381865afa158015611c73573d6000803e3d6000fd5b505050506040513d6000823e3d601f19601f82011682018060405250810190611c9c919061443e565b9050949350505050565b600033905090565b3073ffffffffffffffffffffffffffffffffffffffff166366ad5c8a858585856040518563ffffffff1660e01b8152600401611ced9493929190614496565b600060405180830381600087803b158015611d0757600080fd5b505af1925050508015611d18575060015b611dc6578080519060200120600960008661ffff1661ffff16815260200190815260200160002084604051611d4d91906141bc565b908152602001604051809103902060008467ffffffffffffffff1667ffffffffffffffff168152602001908152602001600020819055507fe6f254030bcb01ffd20558175c13fcaed6d1520be7becee4c961b65f79243b0d84848484604051611db99493929190614496565b60405180910390a1611dc7565b5b50505050565b60007f01ffc9a7000000000000000000000000000000000000000000000000000000007bffffffffffffffffffffffffffffffffffffffffffffffffffffffff1916827bffffffffffffffffffffffffffffffffffffffffffffffffffffffff1916149050919050565b60008073ffffffffffffffffffffffffffffffffffffffff166002600084815260200190815260200160002060009054906101000a900473ffffffffffffffffffffffffffffffffffffffff1673ffffffffffffffffffffffffffffffffffffffff1614159050919050565b816004600083815260200190815260200160002060006101000a81548173ffffffffffffffffffffffffffffffffffffffff021916908373ffffffffffffffffffffffffffffffffffffffff160217905550808273ffffffffffffffffffffffffffffffffffffffff16611f168361117d565b73ffffffffffffffffffffffffffffffffffffffff167f8c5be1e5ebec7d5bd14f71427d1e84f3dd0314c0f7b2291e5b200ac8c7c3b92560405160405180910390a45050565b6000611f68600a6127b4565b9050611f74600a6127c2565b611f7e33826127d8565b50565b611f8a82611e37565b611fc9576040517f08c379a0000000000000000000000000000000000000000000000000000000008152600401611fc09061455b565b60405180910390fd5b80600660008481526020019081526020016000209080519060200190611ff0929190612e0c565b505050565b600061200082611e37565b61203f576040517f08c379a0000000000000000000000000000000000000000000000000000000008152600401612036906145ed565b60405180910390fd5b600061204a8361117d565b90508073ffffffffffffffffffffffffffffffffffffffff168473ffffffffffffffffffffffffffffffffffffffff1614806120b957508373ffffffffffffffffffffffffffffffffffffffff166120a184610c12565b73ffffffffffffffffffffffffffffffffffffffff16145b806120ca57506120c9818561195c565b5b91505092915050565b8273ffffffffffffffffffffffffffffffffffffffff166120f38261117d565b73ffffffffffffffffffffffffffffffffffffffff1614612149576040517f08c379a00000000000000000000000000000000000000000000000000000000081526004016121409061467f565b60405180910390fd5b600073ffffffffffffffffffffffffffffffffffffffff168273ffffffffffffffffffffffffffffffffffffffff1614156121b9576040517f08c379a00000000000000000000000000000000000000000000000000000000081526004016121b090614711565b60405180910390fd5b6121c48383836129b2565b6121cf600082611ea3565b6001600360008573ffffffffffffffffffffffffffffffffffffffff1673ffffffffffffffffffffffffffffffffffffffff168152602001908152602001600020600082825461221f9190614760565b925050819055506001600360008473ffffffffffffffffffffffffffffffffffffffff1673ffffffffffffffffffffffffffffffffffffffff16815260200190815260200160002060008282546122769190614794565b92505081905550816002600083815260200190815260200160002060006101000a81548173ffffffffffffffffffffffffffffffffffffffff021916908373ffffffffffffffffffffffffffffffffffffffff160217905550808273ffffffffffffffffffffffffffffffffffffffff168473ffffffffffffffffffffffffffffffffffffffff167fddf252ad1be2c89b69c2b068fc378daa952ba7f163c4a11628f55a4df523b3ef60405160405180910390a46123358383836129b7565b505050565b600060206000830101519050606060005b602084516123599190614760565b8110156123c057818460208361236f9190614794565b815181106123805761237f6147ea565b5b602001015160f81c60f81b60405160200161239c929190614866565b604051602081830303815290604052915080806123b89061488e565b91505061234b565b506123cb8282610ec3565b505050505050565b6000600760009054906101000a900473ffffffffffffffffffffffffffffffffffffffff16905081600760006101000a81548173ffffffffffffffffffffffffffffffffffffffff021916908373ffffffffffffffffffffffffffffffffffffffff1602179055508173ffffffffffffffffffffffffffffffffffffffff168173ffffffffffffffffffffffffffffffffffffffff167f8be0079c531659141344cd1fd0a4f28419497f9722a3daafe3b4186f6b6457e060405160405180910390a35050565b8173ffffffffffffffffffffffffffffffffffffffff168373ffffffffffffffffffffffffffffffffffffffff161415612508576040517f08c379a00000000000000000000000000000000000000000000000000000000081526004016124ff90614923565b60405180910390fd5b80600560008573ffffffffffffffffffffffffffffffffffffffff1673ffffffffffffffffffffffffffffffffffffffff16815260200190815260200160002060008473ffffffffffffffffffffffffffffffffffffffff1673ffffffffffffffffffffffffffffffffffffffff16815260200190815260200160002060006101000a81548160ff0219169083151502179055508173ffffffffffffffffffffffffffffffffffffffff168373ffffffffffffffffffffffffffffffffffffffff167f17307eab39ab6107e8899845ad3d59bd9653f200f220920489ca2b5937696c31836040516125f991906131c2565b60405180910390a3505050565b6126118484846120d3565b61261d848484846129bc565b61265c576040517f08c379a0000000000000000000000000000000000000000000000000000000008152600401612653906149b5565b60405180910390fd5b50505050565b606061266d82611e37565b6126ac576040517f08c379a00000000000000000000000000000000000000000000000000000000081526004016126a390614a47565b60405180910390fd5b60006006600084815260200190815260200160002080546126cc90613a93565b80601f01602080910402602001604051908101604052809291908181526020018280546126f890613a93565b80156127455780601f1061271a57610100808354040283529160200191612745565b820191906000526020600020905b81548152906001019060200180831161272857829003601f168201915b505050505090506000612756612b44565b905060008151141561276c5781925050506127af565b6000825111156127a1578082604051602001612789929190614a67565b604051602081830303815290604052925050506127af565b6127aa84612b5b565b925050505b919050565b600081600001549050919050565b6001816000016000828254019250508190555050565b600073ffffffffffffffffffffffffffffffffffffffff168273ffffffffffffffffffffffffffffffffffffffff161415612848576040517f08c379a000000000000000000000000000000000000000000000000000000000815260040161283f90614ad7565b60405180910390fd5b61285181611e37565b15612891576040517f08c379a000000000000000000000000000000000000000000000000000000000815260040161288890614b43565b60405180910390fd5b61289d600083836129b2565b6001600360008473ffffffffffffffffffffffffffffffffffffffff1673ffffffffffffffffffffffffffffffffffffffff16815260200190815260200160002060008282546128ed9190614794565b92505081905550816002600083815260200190815260200160002060006101000a81548173ffffffffffffffffffffffffffffffffffffffff021916908373ffffffffffffffffffffffffffffffffffffffff160217905550808273ffffffffffffffffffffffffffffffffffffffff16600073ffffffffffffffffffffffffffffffffffffffff167fddf252ad1be2c89b69c2b068fc378daa952ba7f163c4a11628f55a4df523b3ef60405160405180910390a46129ae600083836129b7565b5050565b505050565b505050565b60006129dd8473ffffffffffffffffffffffffffffffffffffffff16612c02565b15612b37578373ffffffffffffffffffffffffffffffffffffffff1663150b7a02612a06611ca6565b8786866040518563ffffffff1660e01b8152600401612a289493929190614b63565b6020604051808303816000875af1925050508015612a6457506040513d601f19601f82011682018060405250810190612a619190614bc4565b60015b612ae7573d8060008114612a94576040519150601f19603f3d011682016040523d82523d6000602084013e612a99565b606091505b50600081511415612adf576040517f08c379a0000000000000000000000000000000000000000000000000000000008152600401612ad6906149b5565b60405180910390fd5b805181602001fd5b63150b7a0260e01b7bffffffffffffffffffffffffffffffffffffffffffffffffffffffff1916817bffffffffffffffffffffffffffffffffffffffffffffffffffffffff191614915050612b3c565b600190505b949350505050565b606060405180602001604052806000815250905090565b6060612b6682611e37565b612ba5576040517f08c379a0000000000000000000000000000000000000000000000000000000008152600401612b9c90614c63565b60405180910390fd5b6000612baf612b44565b90506000815111612bcf5760405180602001604052806000815250612bfa565b80612bd984612c25565b604051602001612bea929190614a67565b6040516020818303038152906040525b915050919050565b6000808273ffffffffffffffffffffffffffffffffffffffff163b119050919050565b60606000821415612c6d576040518060400160405280600181526020017f30000000000000000000000000000000000000000000000000000000000000008152509050612d81565b600082905060005b60008214612c9f578080612c889061488e565b915050600a82612c989190614cb2565b9150612c75565b60008167ffffffffffffffff811115612cbb57612cba612f18565b5b6040519080825280601f01601f191660200182016040528015612ced5781602001600182028036833780820191505090505b5090505b60008514612d7a57600182612d069190614760565b9150600a85612d159190614ce3565b6030612d219190614794565b60f81b818381518110612d3757612d366147ea565b5b60200101907effffffffffffffffffffffffffffffffffffffffffffffffffffffffffffff1916908160001a905350600a85612d739190614cb2565b9450612cf1565b8093505050505b919050565b828054612d9290613a93565b90600052602060002090601f016020900481019282612db45760008555612dfb565b82601f10612dcd57803560ff1916838001178555612dfb565b82800160010185558215612dfb579182015b82811115612dfa578235825591602001919060010190612ddf565b5b509050612e089190612e92565b5090565b828054612e1890613a93565b90600052602060002090601f016020900481019282612e3a5760008555612e81565b82601f10612e5357805160ff1916838001178555612e81565b82800160010185558215612e81579182015b82811115612e80578251825591602001919060010190612e65565b5b509050612e8e9190612e92565b5090565b5b80821115612eab576000816000905550600101612e93565b5090565b6000604051905090565b600080fd5b600080fd5b600061ffff82169050919050565b612eda81612ec3565b8114612ee557600080fd5b50565b600081359050612ef781612ed1565b92915050565b600080fd5b600080fd5b6000601f19601f8301169050919050565b7f4e487b7100000000000000000000000000000000000000000000000000000000600052604160045260246000fd5b612f5082612f07565b810181811067ffffffffffffffff82111715612f6f57612f6e612f18565b5b80604052505050565b6000612f82612eaf565b9050612f8e8282612f47565b919050565b600067ffffffffffffffff821115612fae57612fad612f18565b5b612fb782612f07565b9050602081019050919050565b82818337600083830152505050565b6000612fe6612fe184612f93565b612f78565b90508281526020810184848401111561300257613001612f02565b5b61300d848285612fc4565b509392505050565b600082601f83011261302a57613029612efd565b5b813561303a848260208601612fd3565b91505092915050565b600067ffffffffffffffff82169050919050565b61306081613043565b811461306b57600080fd5b50565b60008135905061307d81613057565b92915050565b6000806000806080858703121561309d5761309c612eb9565b5b60006130ab87828801612ee8565b945050602085013567ffffffffffffffff8111156130cc576130cb612ebe565b5b6130d887828801613015565b93505060406130e98782880161306e565b925050606085013567ffffffffffffffff81111561310a57613109612ebe565b5b61311687828801613015565b91505092959194509250565b60007fffffffff0000000000000000000000000000000000000000000000000000000082169050919050565b61315781613122565b811461316257600080fd5b50565b6000813590506131748161314e565b92915050565b6000602082840312156131905761318f612eb9565b5b600061319e84828501613165565b91505092915050565b60008115159050919050565b6131bc816131a7565b82525050565b60006020820190506131d760008301846131b3565b92915050565b600081519050919050565b600082825260208201905092915050565b60005b838110156132175780820151818401526020810190506131fc565b83811115613226576000848401525b50505050565b6000613237826131dd565b61324181856131e8565b93506132518185602086016131f9565b61325a81612f07565b840191505092915050565b6000602082019050818103600083015261327f818461322c565b905092915050565b60006020828403121561329d5761329c612eb9565b5b60006132ab84828501612ee8565b91505092915050565b6000819050919050565b6132c7816132b4565b81146132d257600080fd5b50565b6000813590506132e4816132be565b92915050565b600060208284031215613300576132ff612eb9565b5b600061330e848285016132d5565b91505092915050565b600073ffffffffffffffffffffffffffffffffffffffff82169050919050565b600061334282613317565b9050919050565b61335281613337565b82525050565b600060208201905061336d6000830184613349565b92915050565b61337c81613337565b811461338757600080fd5b50565b60008135905061339981613373565b92915050565b600080604083850312156133b6576133b5612eb9565b5b60006133c48582860161338a565b92505060206133d5858286016132d5565b9150509250929050565b600067ffffffffffffffff8211156133fa576133f9612f18565b5b61340382612f07565b9050602081019050919050565b600061342361341e846133df565b612f78565b90508281526020810184848401111561343f5761343e612f02565b5b61344a848285612fc4565b509392505050565b600082601f83011261346757613466612efd565b5b8135613477848260208601613410565b91505092915050565b6000806040838503121561349757613496612eb9565b5b60006134a5858286016132d5565b925050602083013567ffffffffffffffff8111156134c6576134c5612ebe565b5b6134d285828601613452565b9150509250929050565b6000806000606084860312156134f5576134f4612eb9565b5b60006135038682870161338a565b93505060206135148682870161338a565b9250506040613525868287016132d5565b9150509250925092565b600080fd5b600080fd5b60008083601f84011261354f5761354e612efd565b5b8235905067ffffffffffffffff81111561356c5761356b61352f565b5b60208301915083600182028301111561358857613587613534565b5b9250929050565b6000806000604084860312156135a8576135a7612eb9565b5b60006135b686828701612ee8565b935050602084013567ffffffffffffffff8111156135d7576135d6612ebe565b5b6135e386828701613539565b92509250509250925092565b60008060006060848603121561360857613607612eb9565b5b600061361686828701612ee8565b935050602084013567ffffffffffffffff81111561363757613636612ebe565b5b61364386828701613015565b92505060406136548682870161306e565b9150509250925092565b6000819050919050565b6136718161365e565b82525050565b600060208201905061368c6000830184613668565b92915050565b6000602082840312156136a8576136a7612eb9565b5b60006136b68482850161338a565b91505092915050565b6136c8816132b4565b82525050565b60006020820190506136e360008301846136bf565b92915050565b600081519050919050565b600082825260208201905092915050565b6000613710826136e9565b61371a81856136f4565b935061372a8185602086016131f9565b61373381612f07565b840191505092915050565b600060208201905081810360008301526137588184613705565b905092915050565b613769816131a7565b811461377457600080fd5b50565b60008135905061378681613760565b92915050565b600080604083850312156137a3576137a2612eb9565b5b60006137b18582860161338a565b92505060206137c285828601613777565b9150509250929050565b6000819050919050565b60006137f16137ec6137e784613317565b6137cc565b613317565b9050919050565b6000613803826137d6565b9050919050565b6000613815826137f8565b9050919050565b6138258161380a565b82525050565b6000602082019050613840600083018461381c565b92915050565b600080600080608085870312156138605761385f612eb9565b5b600061386e8782880161338a565b945050602061387f8782880161338a565b9350506040613890878288016132d5565b925050606085013567ffffffffffffffff8111156138b1576138b0612ebe565b5b6138bd87828801613015565b91505092959194509250565b6000806000806000608086880312156138e5576138e4612eb9565b5b60006138f388828901612ee8565b955050602061390488828901612ee8565b9450506040613915888289016132d5565b935050606086013567ffffffffffffffff81111561393657613935612ebe565b5b61394288828901613539565b92509250509295509295909350565b6000806040838503121561396857613967612eb9565b5b60006139768582860161338a565b92505060206139878582860161338a565b9150509250929050565b600080600080608085870312156139ab576139aa612eb9565b5b60006139b987828801612ee8565b94505060206139ca87828801612ee8565b93505060406139db8782880161338a565b92505060606139ec878288016132d5565b91505092959194509250565b7f4c7a4170703a20696e76616c696420656e64706f696e742063616c6c65720000600082015250565b6000613a2e601e836131e8565b9150613a39826139f8565b602082019050919050565b60006020820190508181036000830152613a5d81613a21565b9050919050565b7f4e487b7100000000000000000000000000000000000000000000000000000000600052602260045260246000fd5b60006002820490506001821680613aab57607f821691505b60208210811415613abf57613abe613a64565b5b50919050565b7f4c7a4170703a20696e76616c696420736f757263652073656e64696e6720636f60008201527f6e74726163740000000000000000000000000000000000000000000000000000602082015250565b6000613b216026836131e8565b9150613b2c82613ac5565b604082019050919050565b60006020820190508181036000830152613b5081613b14565b9050919050565b7f4f776e61626c653a2063616c6c6572206973206e6f7420746865206f776e6572600082015250565b6000613b8d6020836131e8565b9150613b9882613b57565b602082019050919050565b60006020820190508181036000830152613bbc81613b80565b9050919050565b613bcc81612ec3565b82525050565b6000602082019050613be76000830184613bc3565b92915050565b7f4552433732313a20617070726f76656420717565727920666f72206e6f6e657860008201527f697374656e7420746f6b656e0000000000000000000000000000000000000000602082015250565b6000613c49602c836131e8565b9150613c5482613bed565b604082019050919050565b60006020820190508181036000830152613c7881613c3c565b9050919050565b7f4552433732313a20617070726f76616c20746f2063757272656e74206f776e6560008201527f7200000000000000000000000000000000000000000000000000000000000000602082015250565b6000613cdb6021836131e8565b9150613ce682613c7f565b604082019050919050565b60006020820190508181036000830152613d0a81613cce565b9050919050565b7f4552433732313a20617070726f76652063616c6c6572206973206e6f74206f7760008201527f6e6572206e6f7220617070726f76656420666f7220616c6c0000000000000000602082015250565b6000613d6d6038836131e8565b9150613d7882613d11565b604082019050919050565b60006020820190508181036000830152613d9c81613d60565b9050919050565b7f4552433732313a207472616e736665722063616c6c6572206973206e6f74206f60008201527f776e6572206e6f7220617070726f766564000000000000000000000000000000602082015250565b6000613dff6031836131e8565b9150613e0a82613da3565b604082019050919050565b60006020820190508181036000830152613e2e81613df2565b9050919050565b600081905092915050565b6000613e4c8385613e35565b9350613e59838584612fc4565b82840190509392505050565b6000613e72828486613e40565b91508190509392505050565b6000613e8a83856136f4565b9350613e97838584612fc4565b613ea083612f07565b840190509392505050565b6000604082019050613ec06000830186613bc3565b8181036020830152613ed3818486613e7e565b9050949350505050565b7f4552433732313a206f776e657220717565727920666f72206e6f6e657869737460008201527f656e7420746f6b656e0000000000000000000000000000000000000000000000602082015250565b6000613f396029836131e8565b9150613f4482613edd565b604082019050919050565b60006020820190508181036000830152613f6881613f2c565b9050919050565b7f4e6f6e626c6f636b696e674c7a4170703a2063616c6c6572206d75737420626560008201527f204c7a4170700000000000000000000000000000000000000000000000000000602082015250565b6000613fcb6026836131e8565b9150613fd682613f6f565b604082019050919050565b60006020820190508181036000830152613ffa81613fbe565b9050919050565b7f4552433732313a2062616c616e636520717565727920666f7220746865207a6560008201527f726f206164647265737300000000000000000000000000000000000000000000602082015250565b600061405d602a836131e8565b915061406882614001565b604082019050919050565b6000602082019050818103600083015261408c81614050565b9050919050565b600081905092915050565b7f697066733a2f2f00000000000000000000000000000000000000000000000000600082015250565b60006140d4600783614093565b91506140df8261409e565b600782019050919050565b60006140f5826131dd565b6140ff8185614093565b935061410f8185602086016131f9565b80840191505092915050565b6000614126826140c7565b915061413282846140ea565b915081905092915050565b60006080820190506141526000830188613bc3565b61415f6020830187613bc3565b61416c60408301866136bf565b818103606083015261417f818486613e7e565b90509695505050505050565b6000614196826136e9565b6141a08185613e35565b93506141b08185602086016131f9565b80840191505092915050565b60006141c8828461418b565b915081905092915050565b7f4e6f6e626c6f636b696e674c7a4170703a206e6f2073746f726564206d65737360008201527f6167650000000000000000000000000000000000000000000000000000000000602082015250565b600061422f6023836131e8565b915061423a826141d3565b604082019050919050565b6000602082019050818103600083015261425e81614222565b9050919050565b7f4e6f6e626c6f636b696e674c7a4170703a20696e76616c6964207061796c6f6160008201527f6400000000000000000000000000000000000000000000000000000000000000602082015250565b60006142c16021836131e8565b91506142cc82614265565b604082019050919050565b600060208201905081810360008301526142f0816142b4565b9050919050565b7f4f776e61626c653a206e6577206f776e657220697320746865207a65726f206160008201527f6464726573730000000000000000000000000000000000000000000000000000602082015250565b60006143536026836131e8565b915061435e826142f7565b604082019050919050565b6000602082019050818103600083015261438281614346565b9050919050565b600060808201905061439e6000830187613bc3565b6143ab6020830186613bc3565b6143b86040830185613349565b6143c560608301846136bf565b95945050505050565b60006143e16143dc84612f93565b612f78565b9050828152602081018484840111156143fd576143fc612f02565b5b6144088482856131f9565b509392505050565b600082601f83011261442557614424612efd565b5b81516144358482602086016143ce565b91505092915050565b60006020828403121561445457614453612eb9565b5b600082015167ffffffffffffffff81111561447257614471612ebe565b5b61447e84828501614410565b91505092915050565b61449081613043565b82525050565b60006080820190506144ab6000830187613bc3565b81810360208301526144bd8186613705565b90506144cc6040830185614487565b81810360608301526144de8184613705565b905095945050505050565b7f45524337323155524953746f726167653a2055524920736574206f66206e6f6e60008201527f6578697374656e7420746f6b656e000000000000000000000000000000000000602082015250565b6000614545602e836131e8565b9150614550826144e9565b604082019050919050565b6000602082019050818103600083015261457481614538565b9050919050565b7f4552433732313a206f70657261746f7220717565727920666f72206e6f6e657860008201527f697374656e7420746f6b656e0000000000000000000000000000000000000000602082015250565b60006145d7602c836131e8565b91506145e28261457b565b604082019050919050565b60006020820190508181036000830152614606816145ca565b9050919050565b7f4552433732313a207472616e736665722066726f6d20696e636f72726563742060008201527f6f776e6572000000000000000000000000000000000000000000000000000000602082015250565b60006146696025836131e8565b91506146748261460d565b604082019050919050565b600060208201905081810360008301526146988161465c565b9050919050565b7f4552433732313a207472616e7366657220746f20746865207a65726f2061646460008201527f7265737300000000000000000000000000000000000000000000000000000000602082015250565b60006146fb6024836131e8565b91506147068261469f565b604082019050919050565b6000602082019050818103600083015261472a816146ee565b9050919050565b7f4e487b7100000000000000000000000000000000000000000000000000000000600052601160045260246000fd5b600061476b826132b4565b9150614776836132b4565b92508282101561478957614788614731565b5b828203905092915050565b600061479f826132b4565b91506147aa836132b4565b9250827fffffffffffffffffffffffffffffffffffffffffffffffffffffffffffffffff038211156147df576147de614731565b5b828201905092915050565b7f4e487b7100000000000000000000000000000000000000000000000000000000600052603260045260246000fd5b60007fff0000000000000000000000000000000000000000000000000000000000000082169050919050565b6000819050919050565b61486061485b82614819565b614845565b82525050565b600061487282856140ea565b915061487e828461484f565b6001820191508190509392505050565b6000614899826132b4565b91507fffffffffffffffffffffffffffffffffffffffffffffffffffffffffffffffff8214156148cc576148cb614731565b5b600182019050919050565b7f4552433732313a20617070726f766520746f2063616c6c657200000000000000600082015250565b600061490d6019836131e8565b9150614918826148d7565b602082019050919050565b6000602082019050818103600083015261493c81614900565b9050919050565b7f4552433732313a207472616e7366657220746f206e6f6e20455243373231526560008201527f63656976657220696d706c656d656e7465720000000000000000000000000000602082015250565b600061499f6032836131e8565b91506149aa82614943565b604082019050919050565b600060208201905081810360008301526149ce81614992565b9050919050565b7f45524337323155524953746f726167653a2055524920717565727920666f722060008201527f6e6f6e6578697374656e7420746f6b656e000000000000000000000000000000602082015250565b6000614a316031836131e8565b9150614a3c826149d5565b604082019050919050565b60006020820190508181036000830152614a6081614a24565b9050919050565b6000614a7382856140ea565b9150614a7f82846140ea565b91508190509392505050565b7f4552433732313a206d696e7420746f20746865207a65726f2061646472657373600082015250565b6000614ac16020836131e8565b9150614acc82614a8b565b602082019050919050565b60006020820190508181036000830152614af081614ab4565b9050919050565b7f4552433732313a20746f6b656e20616c7265616479206d696e74656400000000600082015250565b6000614b2d601c836131e8565b9150614b3882614af7565b602082019050919050565b60006020820190508181036000830152614b5c81614b20565b9050919050565b6000608082019050614b786000830187613349565b614b856020830186613349565b614b9260408301856136bf565b8181036060830152614ba48184613705565b905095945050505050565b600081519050614bbe8161314e565b92915050565b600060208284031215614bda57614bd9612eb9565b5b6000614be884828501614baf565b91505092915050565b7f4552433732314d657461646174613a2055524920717565727920666f72206e6f60008201527f6e6578697374656e7420746f6b656e0000000000000000000000000000000000602082015250565b6000614c4d602f836131e8565b9150614c5882614bf1565b604082019050919050565b60006020820190508181036000830152614c7c81614c40565b9050919050565b7f4e487b7100000000000000000000000000000000000000000000000000000000600052601260045260246000fd5b6000614cbd826132b4565b9150614cc8836132b4565b925082614cd857614cd7614c83565b5b828204905092915050565b6000614cee826132b4565b9150614cf9836132b4565b925082614d0957614d08614c83565b5b82820690509291505056fea2646970667358221220fcaac35f6b99b39006b2ca7d754d06ad6fe7adcffb7c26ecb36840dcbba750a664736f6c634300080a0033",
  "devdoc": {
    "author": "Valerio Leo @valerioHQ",
    "kind": "dev",
    "methods": {
      "approve(address,uint256)": {
        "details": "See {IERC721-approve}."
      },
      "balanceOf(address)": {
        "details": "See {IERC721-balanceOf}."
      },
      "getApproved(uint256)": {
        "details": "See {IERC721-getApproved}."
      },
      "isApprovedForAll(address,address)": {
        "details": "See {IERC721-isApprovedForAll}."
      },
      "name()": {
        "details": "See {IERC721Metadata-name}."
      },
      "owner()": {
        "details": "Returns the address of the current owner."
      },
      "ownerOf(uint256)": {
        "details": "See {IERC721-ownerOf}."
      },
      "renounceOwnership()": {
        "details": "Leaves the contract without owner. It will not be possible to call `onlyOwner` functions anymore. Can only be called by the current owner. NOTE: Renouncing ownership will leave the contract without an owner, thereby removing any functionality that is only available to the owner."
      },
      "safeTransferFrom(address,address,uint256)": {
        "details": "See {IERC721-safeTransferFrom}."
      },
      "safeTransferFrom(address,address,uint256,bytes)": {
        "details": "See {IERC721-safeTransferFrom}."
      },
      "setApprovalForAll(address,bool)": {
        "details": "See {IERC721-setApprovalForAll}."
      },
      "supportsInterface(bytes4)": {
        "details": "See {IERC165-supportsInterface}."
      },
      "symbol()": {
        "details": "See {IERC721Metadata-symbol}."
      },
      "transferFrom(address,address,uint256)": {
        "details": "See {IERC721-transferFrom}."
      },
      "transferOwnership(address)": {
        "details": "Transfers ownership of the contract to a new account (`newOwner`). Can only be called by the current owner."
      }
    },
    "title": "A interactive NFT controlled by a contract on L2",
    "version": 1
  },
  "userdoc": {
    "kind": "user",
    "methods": {},
    "version": 1
  },
  "storageLayout": {
    "storage": [
      {
        "astId": 130,
        "contract": "contracts/BaseToken.sol:BaseToken",
        "label": "_name",
        "offset": 0,
        "slot": "0",
        "type": "t_string_storage"
      },
      {
        "astId": 132,
        "contract": "contracts/BaseToken.sol:BaseToken",
        "label": "_symbol",
        "offset": 0,
        "slot": "1",
        "type": "t_string_storage"
      },
      {
        "astId": 136,
        "contract": "contracts/BaseToken.sol:BaseToken",
        "label": "_owners",
        "offset": 0,
        "slot": "2",
        "type": "t_mapping(t_uint256,t_address)"
      },
      {
        "astId": 140,
        "contract": "contracts/BaseToken.sol:BaseToken",
        "label": "_balances",
        "offset": 0,
        "slot": "3",
        "type": "t_mapping(t_address,t_uint256)"
      },
      {
        "astId": 144,
        "contract": "contracts/BaseToken.sol:BaseToken",
        "label": "_tokenApprovals",
        "offset": 0,
        "slot": "4",
        "type": "t_mapping(t_uint256,t_address)"
      },
      {
        "astId": 150,
        "contract": "contracts/BaseToken.sol:BaseToken",
        "label": "_operatorApprovals",
        "offset": 0,
        "slot": "5",
        "type": "t_mapping(t_address,t_mapping(t_address,t_bool))"
      },
      {
        "astId": 1117,
        "contract": "contracts/BaseToken.sol:BaseToken",
        "label": "_tokenURIs",
        "offset": 0,
        "slot": "6",
        "type": "t_mapping(t_uint256,t_string_storage)"
      },
      {
        "astId": 7,
        "contract": "contracts/BaseToken.sol:BaseToken",
        "label": "_owner",
        "offset": 0,
        "slot": "7",
        "type": "t_address"
      },
      {
        "astId": 2293,
        "contract": "contracts/BaseToken.sol:BaseToken",
        "label": "trustedRemoteLookup",
        "offset": 0,
        "slot": "8",
        "type": "t_mapping(t_uint16,t_bytes_storage)"
      },
      {
        "astId": 2583,
        "contract": "contracts/BaseToken.sol:BaseToken",
        "label": "failedMessages",
        "offset": 0,
        "slot": "9",
        "type": "t_mapping(t_uint16,t_mapping(t_bytes_memory_ptr,t_mapping(t_uint64,t_bytes32)))"
      },
      {
        "astId": 1914,
        "contract": "contracts/BaseToken.sol:BaseToken",
        "label": "_tokenIds",
        "offset": 0,
        "slot": "10",
        "type": "t_struct(Counter)1582_storage"
      },
      {
        "astId": 1916,
        "contract": "contracts/BaseToken.sol:BaseToken",
        "label": "tokenController",
        "offset": 0,
        "slot": "11",
        "type": "t_address"
      }
    ],
    "types": {
      "t_address": {
        "encoding": "inplace",
        "label": "address",
        "numberOfBytes": "20"
      },
      "t_bool": {
        "encoding": "inplace",
        "label": "bool",
        "numberOfBytes": "1"
      },
      "t_bytes32": {
        "encoding": "inplace",
        "label": "bytes32",
        "numberOfBytes": "32"
      },
      "t_bytes_memory_ptr": {
        "encoding": "bytes",
        "label": "bytes",
        "numberOfBytes": "32"
      },
      "t_bytes_storage": {
        "encoding": "bytes",
        "label": "bytes",
        "numberOfBytes": "32"
      },
      "t_mapping(t_address,t_bool)": {
        "encoding": "mapping",
        "key": "t_address",
        "label": "mapping(address => bool)",
        "numberOfBytes": "32",
        "value": "t_bool"
      },
      "t_mapping(t_address,t_mapping(t_address,t_bool))": {
        "encoding": "mapping",
        "key": "t_address",
        "label": "mapping(address => mapping(address => bool))",
        "numberOfBytes": "32",
        "value": "t_mapping(t_address,t_bool)"
      },
      "t_mapping(t_address,t_uint256)": {
        "encoding": "mapping",
        "key": "t_address",
        "label": "mapping(address => uint256)",
        "numberOfBytes": "32",
        "value": "t_uint256"
      },
      "t_mapping(t_bytes_memory_ptr,t_mapping(t_uint64,t_bytes32))": {
        "encoding": "mapping",
        "key": "t_bytes_memory_ptr",
        "label": "mapping(bytes => mapping(uint64 => bytes32))",
        "numberOfBytes": "32",
        "value": "t_mapping(t_uint64,t_bytes32)"
      },
      "t_mapping(t_uint16,t_bytes_storage)": {
        "encoding": "mapping",
        "key": "t_uint16",
        "label": "mapping(uint16 => bytes)",
        "numberOfBytes": "32",
        "value": "t_bytes_storage"
      },
      "t_mapping(t_uint16,t_mapping(t_bytes_memory_ptr,t_mapping(t_uint64,t_bytes32)))": {
        "encoding": "mapping",
        "key": "t_uint16",
        "label": "mapping(uint16 => mapping(bytes => mapping(uint64 => bytes32)))",
        "numberOfBytes": "32",
        "value": "t_mapping(t_bytes_memory_ptr,t_mapping(t_uint64,t_bytes32))"
      },
      "t_mapping(t_uint256,t_address)": {
        "encoding": "mapping",
        "key": "t_uint256",
        "label": "mapping(uint256 => address)",
        "numberOfBytes": "32",
        "value": "t_address"
      },
      "t_mapping(t_uint256,t_string_storage)": {
        "encoding": "mapping",
        "key": "t_uint256",
        "label": "mapping(uint256 => string)",
        "numberOfBytes": "32",
        "value": "t_string_storage"
      },
      "t_mapping(t_uint64,t_bytes32)": {
        "encoding": "mapping",
        "key": "t_uint64",
        "label": "mapping(uint64 => bytes32)",
        "numberOfBytes": "32",
        "value": "t_bytes32"
      },
      "t_string_storage": {
        "encoding": "bytes",
        "label": "string",
        "numberOfBytes": "32"
      },
      "t_struct(Counter)1582_storage": {
        "encoding": "inplace",
        "label": "struct Counters.Counter",
        "members": [
          {
            "astId": 1581,
            "contract": "contracts/BaseToken.sol:BaseToken",
            "label": "_value",
            "offset": 0,
            "slot": "0",
            "type": "t_uint256"
          }
        ],
        "numberOfBytes": "32"
      },
      "t_uint16": {
        "encoding": "inplace",
        "label": "uint16",
        "numberOfBytes": "2"
      },
      "t_uint256": {
        "encoding": "inplace",
        "label": "uint256",
        "numberOfBytes": "32"
      },
      "t_uint64": {
        "encoding": "inplace",
        "label": "uint64",
        "numberOfBytes": "8"
      }
    }
  }
}